:102DCA0002370000015500014500C100012A09012E
:102DDA004EFF014400023500000246000001501F68
:102DEA00014300014F00014D00014900420020004B
:102DFA0000420005000042000900004200070000EE
:102E0A00420018000042001A0000C189C181C18332
:102E1A00C182C187C188013000063D2020202020C0
:102E2A00200624FFFFFFFFFFFF014A00023B0000CC
:102E3A0002390000022B0000023300000148190188
:102E4A004B00015400410004FF41001FFF410015DF
:102E5A00FF410002FF41000CFF41000FFF41000B40
:012E6A00FF68
:0700030075923F75B28022E7
:04324400AF187E0041
:10324800E4FDFCC3ED9FEC9E5015E4FBFA0BBB00BC
:0F325800010ABA08F8BB02F50DBD00010C80E4B5
:013267002244
:1033F300758EC0758911758B9A758DA9D28E758A54
:0734030034758CF5D28C2218
:03000B000230744C
:10307400C0E0C0F0C083C082C0D075D000C000C022
:1030840001C002C003C004C005C006C007758A346D
:10309400758CF5122F97E555C3941F500405558080
:1030A40003755500E555D395455007A200B392B773
:1030B4008004A20092B7D007D006D005D004D00374
:1030C400D002D001D000D0D0D082D083D0F0D0E0D4
:0130D40032C9
:03001B0002284177
:10284100C0E0C083C082C0D0758B9A758DA9C3E5E5
:1028510035940450080536E53670020535C3E53870
:102861009419E5379400500A0538E5387013053797
:10287100800F753700753800E545C3941F50020578
:1028810045C3E53C9548E53B9400500A053CE53CD1
:102891007013053B800F753B00753C00E54AC394FE
:1028A100145002054AE534640145337020C3E53A0A
:1028B10094E8E53994035008053AE53A7002053980
:1028C100E53AB42C08E539B40103754A00900021BA
:1028D100E004F07006900020E004F0900006E004AF
:1028E100F07006900005E004F090000AE004F0703A
:1028F10006900009E004F0900008E004F0700690F2
:102901000007E004F0900019E004F0700690001850
:10291100E004F090001BE004F0700690001AE0045F
:10292100F0C3900021E09432900020E09400400632
:10293100D209E4F0A3F0C3900006E094649000058E
:10294100E094004006D201E4F0A3F0C390000AE055
:1029510094FA900009E094004006D203E4F0A3F059
:10296100C3900008E094F4900007E094014006D27F
:1029710002E4F0A3F0C3900019E094E8900018E09D
:1029810094034006D207E4F0A3F0C390001BE09447
:10299100D090001AE094074006D208E4F0A3F0D0EA
:0829A100D0D082D083D0E032D7
:1013BC00751623751720751803EF1470030218C6E1
:1013CC0014700302145214700302160414700302F6
:1013DC001858146003021931E4F515F514F513F5DA
:1013EC0012E47F907E01FDFCAB15AA14A913A81280
:1013FC00C31220FF4003021931B290E4F511F5102D
:10140C00F50FF50EAF16E4FCFDFEAB11AA10A90FFB
:10141C00A80EC31220FF5017E5112401F511E43575
:10142C0010F510E4350FF50FE4350EF50E80D5E50B
:10143C00152401F515E43514F514E43513F513E40E
:10144C003512F512809BE4F515F514F513F512E43D
:10145C007F087E07FDFCAB15AA14A913A812C312B2
:10146C0020FF504DB290E4F511F510F50FF50EAFCD
:10147C0016E4FCFDFEAB11AA10A90FA80EC3122096
:10148C00FF5017E5112401F511E43510F510E43582
:10149C000FF50FE4350EF50E80D5E5152401F51585
:1014AC00E43514F514E43513F513E43512F5128014
:1014BC009EE4F511F510F50FF50EE47F0FFEFDFC23
:1014CC00AB11AA10A90FA80EC31220FF501A12328A
:1014DC0044E5112401F511E43510F510E4350FF550
:1014EC000FE4350EF50E80D2E4F515F514F513F571
:1014FC0012E47F907E01FDFCAB15AA14A913A8126F
:10150C00C31220FF504DB290E4F511F510F50FF514
:10151C000EAF16E4FCFDFEAB11AA10A90FA80EC36A
:10152C001220FF5017E5112401F511E43510F510C8
:10153C00E4350FF50FE4350EF50E80D5E5152401D5
:10154C00F515E43514F514E43513F513E43512F5FB
:10155C0012809EE4F511F510F50FF50EE47F0FFEE9
:10156C00FDFCAB11AA10A90FA80EC31220FF501A34
:10157C00123244E5112401F511E43510F510E4356F
:10158C000FF50FE4350EF50E80D2E4F515F514F5D4
:10159C0013F512E47F907E01FDFCAB15AA14A91380
:1015AC00A812C31220FF4003021931B290E4F511C6
:1015BC00F510F50FF50EAF16E4FCFDFEAB11AA10FD
:1015CC00A90FA80EC31220FF5017E5112401F51125
:1015DC00E43510F510E4350FF50FE4350EF50E80FB
:1015EC00D5E5152401F515E43514F514E43513F59A
:1015FC0013E43512F512809BE4F515F514F513F58B
:10160C0012E47F907E01FDFCAB15AA14A913A8125D
:10161C00C31220FF504DB290E4F511F510F50FF503
:10162C000EAF16E4FCFDFEAB11AA10A90FA80EC359
:10163C001220FF5017E5112401F511E43510F510B7
:10164C00E4350FF50FE4350EF50E80D5E5152401C4
:10165C00F515E43514F514E43513F513E43512F5EA
:10166C0012809EE4F511F510F50FF50EE47F0FFED8
:10167C00FDFCAB11AA10A90FA80EC31220FF501A23
:10168C00123244E5112401F511E43510F510E4355E
:10169C000FF50FE4350EF50E80D2E4F515F514F5C3
:1016AC0013F512E47F907E01FDFCAB15AA14A9136F
:1016BC00A812C31220FF504DB290E4F511F510F5AD
:1016CC000FF50EAF16E4FCFDFEAB11AA10A90FA886
:1016DC000EC31220FF5017E5112401F511E435104B
:1016EC00F510E4350FF50FE4350EF50E80D5E51544
:1016FC002401F515E43514F514E43513F513E4352C
:10170C0012F512809EE4F511F510F50FF50EE47F3D
:10171C000FFEFDFCAB11AA10A90FA80EC31220FFDF
:10172C00501A123244E5112401F511E43510F5106C
:10173C00E4350FF50FE4350EF50E80D2E4F515F512
:10174C0014F513F512E47F907E01FDFCAB15AA1481
:10175C00A913A812C31220FF504DB290E4F511F555
:10176C0010F50FF50EAF16E4FCFDFEAB11AA10A997
:10177C000FA80EC31220FF5017E5112401F511E438
:10178C003510F510E4350FF50FE4350EF50E80D558
:10179C00E5152401F515E43514F514E43513F513AA
:1017AC00E43512F512809EE4F511F510F50FF50EE7
:1017BC00E47F0FFEFDFCAB11AA10A90FA80EC312FB
:1017CC0020FF501A123244E5112401F511E43510B2
:1017DC00F510E4350FF50FE4350EF50E80D2E4F577
:1017EC0015F514F513F512E47F907E01FDFCAB1595
:1017FC00AA14A913A812C31220FF4003021931B274
:10180C0090E4F511F510F50FF50EAF16E4FCFDFEA6
:10181C00AB11AA10A90FA80EC31220FF5017E51187
:10182C002401F511E43510F510E4350FF50FE4350E
:10183C000EF50E80D5E5152401F515E43514F514D7
:10184C00E43513F513E43512F512809BE4F515F528
:10185C0014F513F512E47FF07E0AFDFCAB15AA1407
:10186C00A913A812C31220FF4003021931B290E44D
:10187C00F511F510F50FF50EAF16E4FCFDFEAB11EE
:10188C00AA10A90FA80EC31220FF5017E5112401AE
:10189C00F511E43510F510E4350FF50FE4350EF5C0
:1018AC000E80D5E5152401F515E43514F514E43551
:1018BC0013F513E43512F512809BE4F515F514F5C8
:1018CC0013F512E47F907E01FDFCAB15AA14A9134D
:1018DC00A812C31220FF504DB290E4F511F510F58B
:1018EC000FF50EAF17E4FCFDFEAB11AA10A90FA863
:1018FC000EC31220FF5017E5112401F511E4351029
:10190C00F510E4350FF50FE4350EF50E80D5E51521
:10191C002401F515E43514F514E43513F513E43509
:07192C0012F512809EC2902B
:011933002291
:10326800E0900000F0754805852A4E752A05E4F5BA
:013278004312
:10327900E4F535F536E543C3940D5003054322E4DF
:03328900F54322E8
:10193400AB07AE35AF367C007D1912209CEF6547AE
:101944007003EE65467003021D9F8E468F47EBB40D
:101954000A004003021D96901962F82828730219A0
:101964008002198A0219D1021A18021A5F021AA6F1
:10197400021AED021B34021B7B021CA5E4F54FF591
:101984004DF549021D96E54330E021E54FC39550DE
:101994005002054FE54DD394004002154DE549D35F
:1019A40094005003021D961549021D96E54FD394E9
:1019B400004002154FE54DD394004002154DE54912
:1019C400D394005003021D961549021D96E5433039
:1019D400E021E54FC395505002054FE54DC39550A6
:1019E4005002054DE549D394005003021D96154954
:1019F400021D96E54FD394004002154FE54DD39454
:101A0400004002154DE549D394005003021D96157C
:101A140049021D96E54330E021E54FD3940040028E
:101A2400154FE54DC395505002054DE549D394003B
:101A34005003021D961549021D96E54FD3940040AC
:101A440002154FE54DD394004002154DE549D3945A
:101A5400005003021D961549021D96E54330E0210E
:101A6400E54FD394004002154FE54DC39550500205
:101A7400054DE549C395504003021D960549021DD5
:101A840096E54FD394004002154FE54DD3940040A2
:101A940002154DE549D394005003021D96154902E1
:101AA4001D96E54330E021E54FD394004002154FE5
:101AB400E54DD394004002154DE549C395504003CC
:101AC400021D960549021D96E54FD3940040021568
:101AD4004FE54DD394004002154DE549D394005091
:101AE40003021D961549021D96E54330E021E54F9A
:101AF400C395505002054FE54DD394004002154D57
:101B0400E549C395504003021D960549021D96E51B
:101B14004FD394004002154FE54DD3940040021575
:101B24004DE549D394005003021D961549021D96B4
:101B3400E54330E021E54FC395505002054FE54D94
:101B4400C395505002054DE549C395504003021D0D
:101B5400960549021D96E54FD394004002154FE5C2
:101B64004DD394004002154DE549D394005003022F
:101B74001D961549021D96E5437021E54FC3955006
:101B84005002054FE54DC395505002054DE549C33C
:101B940095504003021D960549021D96E543B40283
:101BA40021E54FC395505002054FE54DD3940040B5
:101BB40002154DE549D394005003021D96154902C0
:101BC4001D96E543B40421E54FC395505002054FDB
:101BD400E54DC395505002054DE549D3940050039B
:101BE400021D961549021D96E543B40621E54FD31F
:101BF40094004002154FE54DC395505002054DE544
:101C040049D394005003021D961549021D96E543DD
:101C1400B40821E54FD394004002154FE54DC39518
:101C2400505002054DE549C395504003021D9605E9
:101C340049021D96E543B40A21E54FD394004002BE
:101C4400154FE54DD394004002154DE549C3955019
:101C54004003021D960549021D96E543B40C21E597
:101C64004FC395505002054FE54DD39400400215E3
:101C74004DE549C395504003021D960549021D9642
:101C8400E54FD394004002154FE54DD39400400234
:101C9400154DE549D394005003021D961549021DC4
:101CA40096E54375F00784AFF0EF7021E54FC395D7
:101CB400505002054FE54DC395505002054DE5497E
:101CC400C395504003021D960549021D96BF01218C
:101CD400E54FC395505002054FE54DD394004002A3
:101CE400154DE549D394005003021D961549021D74
:101CF40096BF0220E54FC395505002054FE54DC3F2
:101D040095505002054DE549D394005003021D96A9
:101D14001549807EBF031DE54FD394004002154F43
:101D2400E54DC395505002054DE549D394004062FA
:101D34001549805EBF041DE54FD394004002154F42
:101D4400E54DC395505002054DE549C395505042A9
:101D54000549803EBF051DE54FD394004002154F51
:101D6400E54DD394004002154DE549C395505022EA
:101D74000549801EBF061BE54FC395505002054F11
:101D8400E54DD394004002154DE549C395505002EA
:0C1D94000549AB49AD4DAF4F12300B229A
:06347100E4F545B2002263
:07341C008F42D2001234714F
:08342300E4F539F53AF54A22FF
:102AF200D20E90001EE0FF90002BE4F0A3EFF090C6
:102B02000012E0900026F0900003E0900027F09081
:102B12000025E0900028F0900000E0900029F0905D
:102B22000024E090002AF0300D03022BCFA3E0FE38
:102B3200A3E0FFD39463EE9400400122900026E0CC
:102B4200FDD3940C5006EDC394015002C3229000B1
:102B520027E0FDC394015002C322900026E014B482
:102B62000C004003022BED902B7775F003A4C58374
:102B720025F0C58373022B9B022BAC022B9B022BED
:102B8200A2022B9B022BA2022B9B022B9B022BA2AB
:102B9200022B9B022BA2022B9BEDD3941F404C22B3
:102BA200900027E0D3941E404222EF540370149009
:102BB200002BE07002A3E0600A900027E0D3941D8E
:102BC200402922900027E0D3941C401F2290002825
:102BD200E0D39417400122900029E0D3943B4001B6
:0C2BE2002290002AE0D3943B400122D353
:012BEE0022C4
:102E6C008F0DE5541221102ED7002ED7012E9B0565
:102E7C002EA5062EAF072EB9082EC3092ECD0A2E6D
:102E8C00ED0D2EC30E2EED0F2EC31000002F0A7F5A
:102E9C00011213BC90001E80507F011213BC9000D5
:102EAC001280467F011213BC900003803C7F0112FC
:102EBC0013BC90002580327F011213BC900000805F
:102ECC00287F011213BC900024801EE50DD39400C2
:102EDC00402CE50D940A50267F011213BC850D2A57
:102EEC00227F011213BC900025E075F00AA47C002F
:0F2EFC00250DFFEC35F0FE7D6412209CEDF022D9
:02001E008F0948
:10002000E530600C7F041213BC12346AE4F5302210
:10003000E509122110057B070C9C080668090C9045
:100040000C0C8C0D05DD150A98160C94180C37193C
:100050000CA01C0395400CA842048A4302204400D3
:10006000784500D44600F2470CB04A0CAC520CA4C0
:100070005A0C985E00000CB5E554640170277F05AA
:100080001213BC7FC87E00123248752420752520CB
:10009000752620752720752820752920123423E421
:1000A000F554C297227554017F021213BCE4F50A7D
:1000B000743D250AF8E6FF7424250AF8A607743D66
:1000C000250AF87620050AE50AB406E4C2001234CF
:1000D00071023423E554600764016003020CB57FAC
:1000E000011213BCE52A6006F544E4F52A22854492
:1000F0002A22E554704D7F051213BCD200123471D0
:1001000090000EE090001EF0900001E0900012F0D0
:1001100090001DE0900003F0900016E0900025F0A4
:1001200090001CE0900000F0900013E0900024F09C
:10013000754805852A4E752A01E4F5431232797512
:10014000540A22E5546402704D7F051213BCC200AC
:1001500012347190000EE090001EF0900001E090CB
:100160000012F090001DE0900003F0900016E09067
:100170000025F090001CE0900000F0900013E0904B
:100180000024F0754805852A4E752A03E4F54312CC
:10019000327975540722E554640B701F7F051213E2
:1001A000BC900022E0900024F0900010E090002528
:1001B000F090001412326875540E22E554640C70ED
:1001C0001D7F051213BC900023E0A3F0900011E006
:1001D000900025F090001712326875541022E554F3
:1001E00064056039E55464066033E5546407602DA6
:1001F000E55464086027E55464096021E554640A05
:10020000601BE554640D6015E554640E600FE55401
:10021000640F6009E55464106003020CB5020C73AE
:10022000E554601964036015E5546404600FE554F7
:10023000640B6009E554640C60030202D77F01126D
:1002400013BCE5536007900001E0FF800590000EAD
:10025000E0FFEF75F00A842430F53DE55360079028
:100260000001E0FF800590000EE0FFEF75F00A84CA
:10027000E5F02430F53EE553600790001DE0FF8077
:1002800005900001E0FFEF75F00A842430F53FE5AA
:1002900053600790001DE0FF8005900001E0FFEF34
:1002A00075F00A84E5F02430F540E55360079000CE
:1002B0000EE0FF800590001DE0FFEF75F00A84243A
:1002C00030F541E553600890000EE0FF02086D90A4
:1002D000001DE0FF02086DE55464026003020CB5E6
:1002E000C20D90000EE0FF75F00A84C454F0FEEFDA
:1002F00075F00A84EE25F0F50D900001E0FF75F031
:100300000A84C454F0FEEF75F00A84EE25F0F50E71
:1003100090001DE0FF75F00A84C454F0FEEF75F004
:100320000A84EE25F0F50F12260B7F011213BCE5AF
:10033000536004AF1A8002AF1BEFC4540F2430F592
:100340003DE5536004AF1A8002AF1BEF540F243019
:10035000F53EE5536004AF1C8002AF1AEFC4540FA2
:100360002430F53FE5536004AF1C8002AF1AEF5410
:100370000F2430F540E5536004AF1B8002AF1CEF43
:10038000C4540F2430F541E5536005AF1B02094FFB
:10039000AF1C02094FE554601664036012E5546413
:1003A00002600CE55464046006E554640C70697FD7
:1003B000011213BC753D61753E31900022E0FF6073
:1003C0000D900010E075F00A842430FE80027E203B
:1003D0008E3FEF600F900010E075F00A84E5F02486
:1003E00030FF80027F308F40900022E0FF600D9050
:1003F0000014E075F00A842430FE80027E668E418F
:10040000EF6010900014E075F00A84E5F02430FFEE
:100410000209F27F660209F2E554640B6003020CE4
:10042000B57F011213BC753D61753E32900023E02B
:10043000FF600D900011E075F00A842430FE800208
:100440007E208E3FEF600F900011E075F00A84E58A
:10045000F02430FF80027F308F40900023E0FF6067
:100460000D900017E075F00A842430FE80027E664D
:100470008E41EF6010900017E075F00A84E5F024DB
:1004800030FF020A8E7F66020A8EE554601964030B
:100490006015E5546402600FE554640B6009E5548F
:1004A000640C6003020CB57F051213BC750A0112BF
:1004B00031738E0B8F0CD3E50C943CE50B9400400C
:1004C000097F327E001232488003750A14050AE55E
:1004D0000AC3941440D9E52D6023AC0BAD0CE41293
:1004E0001FA37B667A6679E6783F121E98E4FBFAD2
:1004F000F97842121DA7121FDC8E0B8F0C753D2060
:10050000D3E50C9463E50B9400401EAE0BAF0C7C5E
:10051000037DE812209C7E007F64CFCDCFCECCCE71
:1005200012209CEF2430FF80027F208F3ED3E50C09
:100530009409E50B9400401EAE0BAF0C7C007D646B
:1005400012209C7E007F0ACFCDCFCECCCE12209C35
:10055000EF2430FF80027F208F3FAE0BAF0C7C007A
:100560007D0A12209CED2430F540754120E52D6078
:10057000057F660207AF7F630207AFE5546003B4EF
:10058000010EE550C3940A5003020CB574F9806063
:10059000E554B40A028075E554B409028064E55458
:1005A000B408028071E554B40502807EE554B407B6
:1005B00002806DE554B40602807AE554B40E0280E0
:1005C0007DE554B40D03020648E554B41003020659
:1005D00052E554640F6003020CB5020660E55460F6
:1005E00003B40119E550D394184003020CB5740705
:1005F0002550F550E4F54FF54DF5498066E554B4C6
:100600000A05755408805CE554B4080575540980E2
:1006100052E554B4090575540A8048E554B40505FB
:10062000755406803EE554B406057554078034E5DC
:1006300054B40705755405802AE554B40E05755465
:100640000D8020E554B40D0575540E8016E554B4A4
:10065000100575540F800CE554640F6003020CB54F
:100660007554107F010213BCE554702F7F051213DF
:10067000BCC3E5349402E5339400500A0534E534F4
:10068000700905338005E4F533F534E5346401453C
:1006900033700475480F2275481922E554640D60C3
:1006A00011E554640E600BE554640F6005E554B425
:1006B00010157F051213BC900024E06003E4F022C3
:1006C0009000247401F022E554640460030207BF23
:1006D0007F051213BCE52D6005E4F52D8003752D13
:1006E000011232AF750A011231738E0B8F0CD3E5F4
:1006F0000C943CE50B940040097F327E0012324896
:100700008003750A14050AE50AC3941440D9E52D3F
:100710006023AC0BAD0CE4121FA37B667A6679E60E
:10072000783F121E98E4FBFAF97842121DA7121FB7
:10073000DC8E0B8F0C753D20D3E50C9463E50B9498
:1007400000401EAE0BAF0C7C037DE812209C7E00A7
:100750007F64CFCDCFCECCCE12209CEF2430FF8053
:10076000027F208F3ED3E50C9409E50B9400401ED8
:10077000AE0BAF0C7C007D6412209C7E007F0ACF04
:10078000CDCFCECCCE12209CEF2430FF80027F2034
:100790008F3FAE0BAF0C7C007D0A12209CED243005
:1007A000F540754120E52D60047F6680027F638FF0
:1007B00042C200123471123423755404020A94E5C3
:1007C00054640260030208867F011213BCE5536083
:1007D00005E4F55380037553011232AFE55360070A
:1007E000900001E0FF800590000EE0FFEF75F00A39
:1007F000842430F53DE5536007900001E0FF80055B
:1008000090000EE0FFEF75F00A84E5F02430F53E2D
:10081000E553600790001DE0FF8005900001E0FFB8
:10082000EF75F00A842430F53FE553600790001D12
:10083000E0FF8005900001E0FFEF75F00A84E5F02D
:100840002430F540E553600790000EE0FF800590EE
:10085000001DE0FFEF75F00A842430F541E5536098
:100860000790000EE0FF800590001DE0FFEF75F09F
:100870000A84E5F02430F542C200123471123423A8
:10088000755402020A94E5546403600302095FC2CE
:100890000D90000EE0FF75F00A84C454F0FEEF7571
:1008A000F00A84EE25F0F50D900001E0FF75F00AE6
:1008B00084C454F0FEEF75F00A84EE25F0F50E9036
:1008C000001DE0FF75F00A84C454F0FEEF75F00AD5
:1008D00084EE25F0F50F12260BE5536005E4F55381
:1008E00080037553011232AF7F011213BCE55360D0
:1008F00004AF1A8002AF1BEFC4540F2430F53DE55E
:10090000536004AF1A8002AF1BEF540F2430F53E42
:10091000E5536004AF1C8002AF1AEFC4540F2430BB
:10092000F53FE5536004AF1C8002AF1AEF540F246B
:1009300030F540E5536004AF1B8002AF1CEFC45498
:100940000F2430F541E5536004AF1B8002AF1CEF6C
:10095000540F2430F54212341E755403020A94E5F4
:1009600054640B60030209FB7F011213BC90002248
:10097000E06004E4F080069000227401F090001022
:10098000E0FD900014E0FB900022E0F5107F0112E2
:100990002CE6753D61753E31900022E0FF600D90C0
:1009A0000010E075F00A842430FE80027E208E3F25
:1009B000EF600F900010E075F00A84E5F02430FF3E
:1009C00080027F308F40900022E0FF600D90001485
:1009D000E075F00A842430FE80027E668E41EF606E
:1009E0000F900014E075F00A84E5F02430FF8002D7
:1009F0007F6612341C75540B020A94E554640C6033
:100A000003020CB57F011213BC900023E06004E4E4
:100A1000F080069000237401F0900011E0FD90003A
:100A200017E0FB900023E0F5107F02122CE6753DE5
:100A300061753E32900023E0FF600D900011E0757B
:100A4000F00A842430FE80027E208E3FEF600F90FB
:100A50000011E075F00A84E5F02430FF80027F3059
:100A60008F40900023E0FF600D900017E075F00AC2
:100A7000842430FE80027E668E41EF600F90001766
:100A8000E075F00A84E5F02430FF80027F661234BE
:100A90001C75540CE4F54B22E55470467F0112138B
:100AA000BCE5236005E4F52380037523011232AF12
:100AB000E52360047F3180027F328F3DE5236004AF
:100AC0007F3280027F348F3E753F687540207541CC
:100AD00020754220C200123471123423755404E48C
:100AE000F54BE5546408600CE55464096006E55470
:100AF000640A705F1230D590000EE090001EF090F6
:100B00000001E0900012F090001DE0900003F0D290
:100B10000D122AF2502890001EE0FF900012E0FD16
:100B2000900003E0FB900025E0F510900000E0F558
:100B300011900024E0F5121231277F0480027F0318
:100B40001213BC7FC87E00123248754819854E2AA0
:100B5000E4F554E5546405600CE55464066006E56C
:100B600054640770621230D5900016E0900025F0B2
:100B700090001CE0900000F0900013E0900024F042
:100B8000C20D122AF2502890001EE0FF900012E0E1
:100B9000FD900003E0FB900025E0F510900000E0E0
:100BA000F511900024E0F5121231277F0480027FB6
:100BB000031213BC7FC87E00123248754819854E57
:100BC0002A123279E4F554E554640D6015E5546455
:100BD0000E600FE554640F6009E554641060030271
:100BE0000CB5D20D122AF25043E554640D6005E5B0
:100BF00054B40E14900025E0FD900000E0FB90003E
:100C000024E0F5107F01801DE554640F6005E55474
:100C1000B41015900025E0FD900000E0FB9000244A
:100C2000E0F5107F02122CE67F0480027F0312138E
:100C3000BC7FF47E018045E55464056036E554646C
:100C4000066030E5546407602AE55464086024E5D2
:100C5000546409601EE554640A6018E554640D602C
:100C600012E554640E600CE554640F6006E55464AC
:100C70001070427F031213BC7FC87E001232487589
:100C80004819854E2A123279E4F55422E4FF802275
:100C90007F01801E7F02801A7F0380167F048012EE
:100CA0007F05800E7F06800A7F0780067F0880020E
:050CB0007F09122E6C0B
:010CB500221C
:102F9700052EA20A92D5A2B2920A30D566200A63FC
:102FA700AF2EE4F52EEFD394784003C20622EFC389
:102FB700944D400BEF9463404AD206754C20223063
:102FC7000641EFD394184003C20622E52FC313F539
:102FD7002FEFC3940D4003432F80D54C17C206E54E
:102FE7002FF4B5311EE551B4FF19E552701585313F
:102FF70032D20522E54C540770098551528531516B
:03300700852F31E1
:01300A0022A3
:10331100AB07AF05AE04EBD394004012EF139291CB
:0F332100D293C293EEC313FEEF13FF1B80E8227B
:082136008B098A0A890B8D0C4C
:10213E00D20DE4F50DE50CB40217AB09AA0AA90BF2
:10214E00850D8275830012205DFF7424250DF8A67F
:10215E0007AB09AA0AA90B850D8275830012205DB3
:10216E00122110219F3021A83121B13221BA332101
:10217E00C33421CC3521D53621DE3721E73821F085
:10218E003921F961220B63220266221468000022B3
:10219E001D740E250DF87620807C740E250DF876B4
:1021AE006E8073740E250DF87614806A740E250DEC
:1021BE00F8760C8061740E250DF8764A8058740EF0
:1021CE00250DF87609804F740E250DF876018046A0
:1021DE00740E250DF8766C803D740E250DF8E4F620
:1021EE008034740E250DF87608802B740E250DF8AC
:1021FE0076408022740E250DF876518019740E25C6
:10220E000DF876B18010740E250DF87642800774A5
:10221E000E250DF876FFE50C64017033AB09AA0AA2
:10222E00A90B850D82F58312205DFF7424250DF810
:10223E00E66F601BD3E53A942CE53994015009748E
:10224E000E250DF876FF80077424250DF876207480
:10225E0024250DF8E6122110229430229D3122A65B
:10226E003222AF3322B83422C13522CA3622D337B6
:10227E0022DC3822E53922EE6123006322F7662341
:10228E000968000023127414250DF87620807C74E2
:10229E0014250DF8766E80737414250DF87614805F
:1022AE006A7414250DF8760C80617414250DF87679
:1022BE004A80587414250DF87609804F7414250D34
:1022CE00F8760180467414250DF8766C803D7414F2
:1022DE00250DF8E4F680347414250DF87608802B5D
:1022EE007414250DF8764080227414250DF876515D
:1022FE0080197414250DF876B180107414250DF81C
:10230E00764280077414250DF876FFAE2BAF2C7C29
:10231E00007D1412209CD3ED954AEC940050047469
:10232E000E80027414250DF8E6FFEFFD7C007F0889
:10233E00123311E54AC394144017AB09AA0AA90B2C
:10234E00850D8275830012205DFF7424250DF8A67D
:10235E0007AB09AA0AA90B850D8275830012205DB1
:10236E00FF7424250DF8E66F6002C20D050DE50D14
:10237E00C394065003022143C3E52C94E8E52B9445
:10238E0003500A052CE52C7009052B8005E4F52B6E
:08239E00F52CD292C292A20DAF
:0123A6002214
:1030D5007F0612333012342B90000EEFF07F05126D
:1030E500333012342B900001EFF07F04123330128D
:1030F500342B90001DEFF07F0212333053073F123F
:10310500342B900016EFF07F0112333012342B90E0
:10311500001CEFF0E4FF12333012342B900013EF54
:01312500F0B9
:013126002286
:07346A00E4FD7F0F0231E9D0
:102BEF007F007E601232F1900022EFF07F017E6055
:102BFF001232F1900010EFF07F027E601232F190EE
:102C0F000014EFF07F037E601232F1900023EFF09B
:102C1F007F047E601232F1900011EFF07F057E602D
:102C2F001232F1900017EFF0900022E0D3940140A0
:102C3F0002E4F0900010E0D394174002E4F090000B
:102C4F0014E0D3943B4002E4F0900023E0D39401CE
:102C5F004002E4F0900011E0D394174002E4F090AA
:102C6F000017E0D3943B4002E4F0E4FD7F071231FC
:102C7F00E9900014E0FF1233DAAD077F081231E953
:102C8F00900010E0FF1233DAAD077F091231E97DB2
:102C9F00807F0A1231E9900017E0FF1233DAAD0797
:102CAF007F0B1231E9900011E0FF1233DAAD077F8D
:102CBF000C1231E97D807F0D1231E97D04900022E5
:102CCF00E06003430501900023E060034305027FAA
:072CDF000E1231E902346A14
:102CE600BF0112900022E510F0900010EDF0900068
:102CF60014EBF08013BF0210900023E510F0900053
:102D060011EDF0900017EBF0E4FD7F071231E9902A
:102D16000014E0FF1233DAAD077F081231E99000A4
:102D260010E0FF1233DAAD077F091231E97D807FAB
:102D36000A1231E9900017E0FF1233DAAD077F0B74
:102D46001231E9900011E0FF1233DAAD077F0C1261
:102D560031E97D807F0D1231E97F007E601233C03C
:102D6600900022E0FD7F007E60123389900010E023
:102D7600FD7F017E60123389900014E0FD7F027EA4
:102D860060123389900023E0FD7F037E6012338951
:102D9600900011E0FD7F047E60123389900017E0F9
:102DA600FD7F057E601233897D04900022E060037A
:102DB600430501900023E060034305027F0E1231B4
:042DC600E902346A80
:10336D007F007E641232F18F2D7F017E641232F167
:0C337D008F537F027E641232F18F2322F6
:1032AF007F007E641233C0AD2D7F007E64123389A0
:1032BF00AD537F017E64123389AD237F027E64029A
:0232CF00338941
:100CB600E4F508D297C2901200031233F3FBFDFF4E
:100CC60012300BD2A9D2ABD2AF7FF47E01123248DA
:100CD6007F051213BC122BEF12336DC2977B007A7D
:100CE60000793DAD34122136920BAF2A1219342009
:100CF600B307E5307003753001300507AF321200D7
:100D06001EC205300908300B031230D5C209300760
:100D16000AE554B40103123279C20730081D300BBC
:100D26001AE53060167F031213BC0530E530D39404
:100D36000F400612346AE4F530C208E554B41100D7
:100D4600509B900D4FF8282873020D82020E070261
:100D56000E1B020E1B020E1B020F6602102B021048
:100D6600DB020E50020E9C020F01020E1B020E1B2E
:100D76000211A00212270212A9021335900013E0F5
:100D8600FF90000BE06F7003020CE3E52360159003
:100D96000016E0FFD3940C4007EF24F4F508800A10
:100DA6008F088006900016E0F508E50875F00A84BD
:100DB6002430F53DE50875F00A84E5F02430F53E6B
:100DC60090001CE0FF75F00A842430F53FEF75F0C3
:100DD6000A84E5F02430F540900013E0FF75F00A30
:100DE600842430F541EF75F00A84E5F02430F542AD
:100DF600123471123279123423E090000BF0020C97
:100E0600E3309703020CE3E52464206003020CE35D
:100E1600D297020CE3900013E0FF90000BE06F60A6
:100E26000B123279900013E090000BF020010302C0
:100E36000CE3E54BC394FF5002054BE54BC3941EF0
:100E46004003E4F554C201020CE3200303020CE361
:100E5600B20C300C047F20800B900025E075F00A60
:100E6600842430FF8F3D300C047F20800D900025B8
:100E7600E075F00A84E5F02430FF8F3E900000E034
:100E8600FF75F00A842430F53FEF75F00A84E5F02B
:100E96002430F540804A200303020CE3B20C900094
:100EA60025E0FF75F00A842430F53DEF75F00A84DD
:100EB600E5F02430F53E300C047F20800B900000D6
:100EC600E075F00A842430FF8F3F300C047F2080C9
:100ED6000D900000E075F00A84E5F02430FF8F40A5
:100EE600900024E0FF75F00A842430F541EF75F098
:100EF6000A84E5F02430F54202132D200303020C88
:100F0600E3B20C900025E0FF75F00A842430F53D2D
:100F1600EF75F00A84E5F02430F53E900000E0FF1E
:100F260075F00A842430F53FEF75F00A84E5F02465
:100F360030F540300C047F20800B900024E075F0E3
:100F46000A842430FF8F41300C047F20800D9000EE
:100F560024E075F00A84E5F02430FF8F4202132D59
:100F6600200303020CE3B20CE553605C900012E030
:100F7600FF75F00A842430F53DEF75F00A84E5F03C
:100F86002430F53E900003E0FF75F00A842430F526
:100F96003FEF75F00A84E5F02430F540300C047F0D
:100FA60020800B90001EE075F00A842430FF8F41EC
:100FB600300C047F20800D90001EE075F00A84E559
:100FC600F02430FF8F42805A300C047F20800B9033
:100FD600001EE075F00A842430FF8F3D300C047F3C
:100FE60020800D90001EE075F00A84E5F02430FFA5
:100FF6008F3E900012E0FF75F00A842430F53FEF33
:1010060075F00A84E5F02430F540900003E0FF75A2
:10101600F00A842430F541EF75F00A84E5F02430B7
:10102600F54202132D200303020CE3B20CE55360D4
:1010360047300C047F20800B900012E075F00A8484
:101046002430FF8F3D300C047F20800D900012E08D
:1010560075F00A84E5F02430FF8F3E900003E0FF30
:1010660075F00A842430F53FEF75F00A84E5F02424
:1010760030F54090001E804590001EE0FF75F00A96
:10108600842430F53DEF75F00A84E5F02430F53E12
:10109600300C047F20800B900012E075F00A842447
:1010A60030FF8F3F300C047F20800D900012E075DA
:1010B600F00A84E5F02430FF8F40900003E0FF75CE
:1010C600F00A842430F541EF75F00A84E5F0243007
:1010D600F54202132D200303020CE3B20CE5536024
:1010E6005C900012E0FF75F00A842430F53DEF7540
:1010F600F00A84E5F02430F53E300C047F20800BA6
:10110600900003E075F00A842430FF8F3F300C0412
:101116007F20800D900003E075F00A84E5F024300E
:10112600FF8F4090001EE0FF75F00A842430F541E1
:10113600EF75F00A84E5F02430F542805A90001EDF
:10114600E0FF75F00A842430F53DEF75F00A84E57A
:10115600F02430F53E900012E0FF75F00A8424304A
:10116600F53FEF75F00A84E5F02430F540300C04C5
:101176007F20800B900003E075F00A842430FF8FF7
:1011860041300C047F20800D900003E075F00A8446
:10119600E5F02430FF8F4202132D200303020CE3F7
:1011A600B20C753D61753E31300C047F2080139082
:1011B6000024E0600BA3E075F00A842430FF80026F
:1011C6007F208F3F300C047F208015900024E06044
:1011D6000DA3E075F00A84E5F02430FF80027F302D
:1011E6008F40900024E0FF600D900000E075F00A4B
:1011F600842430FE8009300C047E2080027E668EB8
:1012060041EF600F900000E075F00A84E5F02430AD
:10121600FF8009300C047F2080027F668F42021314
:101226002D200303020CE3B20C753D61753E31902F
:101236000024E0FF600BA3E075F00A842430FE80F2
:10124600027E208E3FEF600F900025E075F00A8445
:10125600E5F02430FF8009300C047F2080027F30C7
:101266008F40300C047F208015900024E0600D90A4
:101276000000E075F00A842430FF80027F668F410B
:10128600300C047F208017900024E0600F9000004F
:10129600E075F00A84E5F02430FF80027F668F4215
:1012A60002132D200303020CE3B20C753D61753E5B
:1012B60032300C047F208013900024E0600BA3E002
:1012C60075F00A842430FF80027F208F3F300C04A3
:1012D6007F208015900024E0600DA3E075F00A845D
:1012E600E5F02430FF80027F308F40900024E0FF3D
:1012F600600D900000E075F00A842430FE8009300D
:101306000C047E2080027E668E41EF600F90000006
:10131600E075F00A84E5F02430FF8009300C047F84
:101326002080027F668F42123423C203020CE32020
:101336000303020CE3B20C753D61753E3290002446
:10134600E0FF600BA3E075F00A842430FE80027E85
:10135600208E3FEF600F900025E075F00A84E5F0DF
:101366002430FF8009300C047F2080027F308F40BC
:10137600300C047F208015900024E0600D90000062
:10138600E075F00A842430FF80027F668F41300CBE
:10139600047F208017900024E0600F900000E07525
:1013A600F00A84E5F02430FF80027F668F42123413
:0613B60023C203020CE358
:10300B00C295C294E4FED294C2940EBE20F8D2951F
:10301B00D294C2947C10E4FEEC5D6004D2958002E5
:10302B00C295D294C294ECC313FC0EBE05EA7C107D
:10303B00E4FEEC5F6004D2958002C295D294C294F8
:10304B00ECC313FC0EBE05EA7C10E4FEEC5B6004E3
:10305B00D2958002C295D294C294ECC313FC0EBEDF
:08306B0005EAD295D294C2944B
:01307300223A
:0F342B00EFC4540F75F00AA4FEEF540F2EFF22CA
:1033DA00EF75F06484E5F075F00A84C454F0FEEFEA
:0933EA0075F00A84E5F04EFF22A3
:08346100E4FF00000FBF0AFAAE
:013469002240
:0F343A00D2B5D2B4123461C2B5123461C2B42219
:0A345700C2B5D2B4123461D2B5221E
:0231B200AE0766
:1031B400E4FDEEA805088002C333D8FC30E704D24E
:1031C400B58002C2B5D2B4123461C2B40DBD08E2F6
:1031D400D2B5D2B412346130B504C2108002D21018
:0531E400C2B4023461D9
:10328C00E4FED2B5FDC2B4123461D2B4123461EE94
:10329C0025E0FE30B5010E1234610DBD08E7C2B455
:0232AC00AF066B
:0132AE0022FD
:0E344900A20D92B5D2B4123461C2B402346145
:1031E900AC05AB0712343A7FD01231B22010037FFD
:1031F9000022AF031231B22010037F0022AF041264
:1032090031B22010037F0022123457123461123474
:04321900617F0122AE
:10334F0012343A7FD11231B22010037F0022123291
:0D335F008CAE07D20D123449123457AF0660
:01336C00223E
:10333000AC0712343A7FD01231B22010037F002242
:0F334000AF041231B22010037F002212334F224C
:04312700AA03A90549
:10312B00E4FD1233DAAD077F061231E9AF0112333A
:10313B00DAAD077F051231E9AF021233DAAD077F43
:10314B00041231E9AF101233DAAD077F021231E905
:10315B00AF111233DAAD077F011231E9AF1212331F
:08316B00DAAD07E4FF0231E9CF
:1023A70004AE530A57485526BD0D26500D95444691
:1023B700AAB9056A4D09AD4224AEB604AE4A6A4DC4
:1023C700BE0A4D520D25465D52BA0B544E0D6A4357
:1023D700296D37095B4B749BC10497540A4B485BC3
:1023E70025BC06A55006D4454ADAB802B64D0957AA
:1023F700422497B704974A664B3E0D4A510EA546AD
:1024070056D4BA05AD4E02B644393738092E4B7C3F
:1024170096BF0C95530D4A486DA53B0B554F056A62
:10242700454AADB9025D4D092D422C95B60A954A2C
:102437007B4ABD06CA510B5546555ABB04DA4E0AAC
:102447005B43352BB8052B4C8A953F0E955206AA50
:10245700487AD53C0AB54F04B6454A57390A574D0D
:102467000526423E93350D954975AABE056A510961
:102477006D4654AEBB04AD4F0A4D434D26B70D25EF
:102487004B8D52BF0B54520B6A47696D3C095B5029
:10249700049B454A4BB90A4B4DAB25C206A55406CA
:1024A700D4496ADA3D0AB6510937465497BB0497AF
:1024B7004F064B4436A5370EA54A86B2BF05AC5327
:1024C7000AB6475936BC092E500C96454D4AB80DE9
:1024D7004A4C0DA54125AAB6056A497AADBD025DEC
:1024E70052092D475C95BA0A954E0B4A434B55370F
:1024F7000AD54A955ABF04BA530A5B48652BBC05EF
:102507002B500A9345474AB906AA4C0AD54124DA03
:10251700B604B64A69573D0A4E510D26465E933AB0
:102527000D534D05AA4336B537096D4BB4AEBF04FD
:10253700AD530A4D486D25BC0D254F0D52445DAA7C
:10254700380B5A4C056D4124ADB6049B4A7A4BBEF5
:102557000A4B510AA5465B52BA06D24E0ADA420026
:102567000000000000000000000000000000000064
:102577000000000000000000000000000000000054
:102587000000000000000000000000000000000044
:102597000000000000000000000000000000000034
:1025A7000000000000000000000000000000000024
:1025B7000000000000000000000000000000000014
:1025C7000000000000000000000000000000000004
:1025D70000000000000000000000000000000000F4
:1025E70000000000000000000000000000000000E4
:1025F7000000000000001F3B5A7897B5D4F3011183
:042607000130014E4F
:0629A900AD15AC14AF11E6
:1029AF00EF14B40D004003022AF19029C775F0030C
:1029BF00A4C58325F0C583730229EE022A02022AD9
:1029CF0016022A2A022A3E022A52022A66022A7A6C
:1029DF00022A8E022AA2022AB6022ACA022ADE740A
:1029EF00A72DF58274233CF583E49354087002C33A
:1029FF0022D32274A72DF58274233CF583E49354DC
:102A0F00047002C322D32274A72DF58274233CF5E0
:102A1F0083E49354027002C322D32274A72DF5824C
:102A2F0074233CF583E49354017002C322D32274C0
:102A3F00A82DF58274233CF583E49354807002C370
:102A4F0022D32274A82DF58274233CF583E493548A
:102A5F00407002C322D32274A82DF58274233CF553
:102A6F0083E49354207002C322D32274A82DF582DD
:102A7F0074233CF583E49354107002C322D3227461
:102A8F00A82DF58274233CF583E49354087002C398
:102A9F0022D32274A82DF58274233CF583E493543A
:102AAF00047002C322D32274A82DF58274233CF53F
:102ABF0083E49354027002C322D32274A82DF582AB
:102ACF0074233CF583E49354017002C322D3227420
:102ADF00A92DF58274233CF583E49354807002C3CF
:022AEF0022D3F0
:012AF10022C2
:10260B00E50DC4540FFBE50D540FFAEB75F00AA45E
:10261B002AF50DE50EC4540FFBE50E540FFAEB75BE
:10262B00F00AA42AF50EE50FC4540FFBE50F540F67
:10263B00FAEB75F00AA42AF50FE50D200D072463BC
:10264B00FFE433800624FFFFE434FFFE7C007D03B0
:10265B0012208A8E148F1574A92515F582742335D3
:10266B0014F583E493FE5460FB7805FF08800103A7
:10267B00D8FDFBEE541FFABB010514F5108005EADB
:10268B00241EF510E50EC3940AE50E500B9025FBA6
:10269B0093250FFFE433801525E024F1F582E43414
:1026AB0025F583740193250FFFE4933400CF24FFAA
:1026BB00F513EF34FFF512E50ED39402400EE50D42
:1026CB00540370080513E51370020512AF107E005A
:1026DB00C3E5139FE5129E4079E5139FF513E512B1
:1026EB009EF512750E017511011229A9920EC20FDA
:1026FB00200E047B1D80027B1E74A72515F58274AA
:10270B00233514F583E49354F0FA7804FF08800121
:10271B0003D8FDFAEBFF7E00C3E5139FE5129E4045
:10272B002CE5139FF513E5129EF5120511E50EB579
:10273B000209B20F200F06050E8002050E1229A901
:10274B00920E200E047B1D80CB7B1E80C7E51302EF
:10275B0027E2C3E5109513F510E50D7007750D63B2
:10276B00D20D8002150D74FD2515F51574FF35146A
:10277B00F514750E0CFE74A72515F58274233EF522
:10278B0083E49354F0FA7804FF08800103D8FDFA30
:10279B00700575110C800375110DC20F1229A992CA
:1027AB000E200E047B1D80027B1EE510D39B402365
:1027BB00E5109BF5101511200F02150EE50EB50255
:1027CB0002B20F1229A9920E200E047B1D80DB7B17
:1027DB001E80D7C3EB951004F50FA20D9211E50DDA
:1027EB0075F00A84FB7804FF08800123D8FDFBE514
:1027FB000D75F00A84AAF0EB4AF51BE50E75F00A8D
:10280B0084FB7804FF08800123D8FDFBE50E75F0EF
:10281B000A84AAF0EB4AF51AE50F75F00A84FB78E7
:10282B0004FF08800123D8FDFBE50F75F00A84AA8D
:05283B00F0EB4AF51C62
:012840002275
:1031730012321D7FCC1233A57F441233A53096FD46
:1031830012321D7FCC1233A57FBE1233A51232D16A
:103193008F1E1232D18F1DEFFE7C00E4251EFFEC43
:0F31A3003EC4F854F0C868FEEFC4540F48FF2232
:07340A00123411D2967F017C
:0B341100AE071FEE6004000080F622F2
:10321D00D2D730D721C2967FF01234117FF01234FD
:10322D0011D2967F3C123411A2967FF01234117F89
:07323D00B412341180DC2201
:1032D100E4FDFCEDC313FDC2967F0112340A309662
:0F32E100034305807F3C1234110CBC08E6AF0597
:0132F00022BB
:0233A500AD0772
:1033A700E4FCC2967F01123411EDC313FD92967FA0
:0833B7003C12340A0CBC08EAC8
:0133BF0022EB
:1032F100E4F5E275E78175E5018E568F578556E352
:103301008557E475E64675E6B90012000EAFE22274
:1033890075E78175E5028E568F578556E38557E4B3
:0C3399008DE275E64675E6B90002000EF4
:1033C00075E78175E5038E568F578556E38557E47B
:0A33D00075E64675E6B90002000E2E
:0C000E00E4F5E7F5E5F5E6F5E3F5E4229E
:101DA000022048E86480F8E933E83360110460F009
:101DB000ED33EC337009E8FCE9FDEAFEEBFF2204A9
:101DC00060DED3EB9FEA9EE99DE8C2E78CF0C2F7A4
:101DD00095F0400CE8CCF8E9CDF9EACEFAEBCFFB70
:101DE00012201385D0F05804700320D5B3E8047096
:101DF000075002B2D502205292D5EC0460F7E4CC31
:101E0000C0E0C398F8603B94186008400DD0E0FB38
:101E100002202AE4FBFAC9FC8028E830E406E4C981
:101E2000FBE4CAFCE830E305E4C9CACBFCE854078C
:101E30006010F8C3E913F9EA13FAEB13FBEC13FC97
:101E4000D8F130F52FC3E49CFCEF9BFFEE9AFEED3A
:101E500099FDD0E0FBEF4E4D4C701222DB030220C7
:101E60004FEC2CFCEF33FFEE33FEED33FDED30E7AE
:101E7000EB02202AEF2BFFEE3AFEED39FDD0E0FB1E
:101E800050130BBB0003022052ED13FDEE13FEEFC7
:081E900013FFEC13FC02202AF1
:101E9800EC4D6011E8497017ED33EC3304600DE444
:101EA800FCFFFEFD22E933E8330470F802204812F3
:101EB800201358046009E4CC2481500628500902F4
:101EC800205228400302204FC0E0EB4A7044B980FA
:101ED80006D0E0FB02203EEF4E701CBD8008EBFFF1
:101EE800EAFEE9FD80EBE98DF0A4FEE5F0021F8132
:101EF800E9CDF9EAFEEBFFEF89F0A4FCE5F0CE8925
:101F0800F0A42EFFE435F0CD89F0A42DFEE435F0E1
:101F18008067EF4E7005BD80D780C3EF8BF0A4AC0F
:101F2800F0EE8BF0A42CFCE435F0F8EF8AF0A42C4A
:101F3800E5F038FCE433CB8DF0A42CFCE5F03BF85D
:101F4800EE8AF0A42CFCE5F038F8E433CF89F0A44D
:101F58002CFCE5F038CF3400CE89F0A42FFFE5F053
:101F68003EFEE433C98DF0A42EFEE5F039CD8AF0AB
:101F7800A42FFFE5F03EFEE43DFD33D0E0FB500723
:101F88000BBB000F022052EC2CFCEF33FFEE33FEAC
:061F9800ED33FD02202ADA
:101F9E0075F020800E75F010800575F0087D007EBE
:101FAE00007F003392D530D5031220F1EC33401070
:101FBE00EF33FFEE33FEED33FDEC33FCD5F0ED22C7
:0E1FCE00E5F0247EA2D513CC92E7CDCEFF2203
:101FDC00EDD2E7CD33EC3392D524814006E4FFFEFD
:101FEC00FDFC22FCE4CFCECDCC24E0501174FF805C
:101FFC00EDC3CC13CCCD13CDCE13CECF13CF0470F9
:07200C00F030D5DE0220F1E7
:10201300E9D2E7C933E833F892D5EDD2E7CD33EC13
:0720230033FC5002B2D5228C
:10202A00EC30E7100FBF000C0EBE00080DBD000417
:10203A000BEB6014A2D5EB13FCED92E7FD2274FFC3
:10204A00FCFDFEFF22E480F8A2D574FF13FC7D801C
:03205A00E480EF30
:03000000022F0BC1
:0C2F0B00787FE4F6D8FD758157022F5244
:10205D00BB010CE58229F582E5833AF583E0225038
:10206D0006E92582F8E622BBFE06E92582F8E22282
:0D207D00E58229F582E5833AF583E493229C
:10208A00EF8DF0A4A8F0CF8CF0A428CE8DF0A42E6A
:02209A00FE2224
:10209C00BC000BBE0029EF8DF084FFADF022E4CC28
:1020AC00F875F008EF2FFFEE33FEEC33FCEE9DECF1
:1020BC00984005FCEE9DFE0FD5F0E9E4CEFD22ED37
:1020CC00F8F5F0EE8420D21CFEADF075F008EF2F81
:1020DC00FFED33FD4007985006D5F0F222C398FD72
:0520EC000FD5F0EA220F
:0E20F100C3E49FFFE49EFEE49DFDE49CFC2200
:1020FF00EB9FF5F0EA9E42F0E99D42F0E89C45F037
:01210F0022AD
:10211000D083D082F8E4937012740193700DA3A35E
:1021200093F8740193F5828883E473740293686072
:06213000EFA3A3A380DF72
:102F1700020CB6E493A3F8E493A34003F68001F20E
:102F270008DFF48029E493A3F85407240CC8C333BB
:102F3700C4540F4420C8834004F456800146F6DF8A
:102F4700E4800B0102040810204080902DCAE47E23
:102F5700019360BCA3FF543F30E509541FFEE4937F
:102F6700A360010ECF54C025E060A840B8E493A346
:102F7700FAE493A3F8E493A3C8C582C8CAC583CA71
:102F8700F0A3C8C582C8CAC583CADFE9DEE780BE29
:012E6B000066
:00000001FF
